{
  "_format": "hh-sol-artifact-1",
  "contractName": "DeafGalaxy",
  "sourceName": "contracts/SpaceNFT.sol",
  "abi": [
    {
      "inputs": [],
      "stateMutability": "nonpayable",
      "type": "constructor"
    },
    {
      "anonymous": false,
      "inputs": [
        {
          "indexed": true,
          "internalType": "address",
          "name": "owner",
          "type": "address"
        },
        {
          "indexed": true,
          "internalType": "address",
          "name": "approved",
          "type": "address"
        },
        {
          "indexed": true,
          "internalType": "uint256",
          "name": "tokenId",
          "type": "uint256"
        }
      ],
      "name": "Approval",
      "type": "event"
    },
    {
      "anonymous": false,
      "inputs": [
        {
          "indexed": true,
          "internalType": "address",
          "name": "owner",
          "type": "address"
        },
        {
          "indexed": true,
          "internalType": "address",
          "name": "operator",
          "type": "address"
        },
        {
          "indexed": false,
          "internalType": "bool",
          "name": "approved",
          "type": "bool"
        }
      ],
      "name": "ApprovalForAll",
      "type": "event"
    },
    {
      "anonymous": false,
      "inputs": [
        {
          "indexed": true,
          "internalType": "address",
          "name": "previousOwner",
          "type": "address"
        },
        {
          "indexed": true,
          "internalType": "address",
          "name": "newOwner",
          "type": "address"
        }
      ],
      "name": "OwnershipTransferred",
      "type": "event"
    },
    {
      "anonymous": false,
      "inputs": [
        {
          "indexed": true,
          "internalType": "address",
          "name": "from",
          "type": "address"
        },
        {
          "indexed": true,
          "internalType": "address",
          "name": "to",
          "type": "address"
        },
        {
          "indexed": true,
          "internalType": "uint256",
          "name": "tokenId",
          "type": "uint256"
        }
      ],
      "name": "Transfer",
      "type": "event"
    },
    {
      "inputs": [],
      "name": "MAX_SUPPLY",
      "outputs": [
        {
          "internalType": "uint256",
          "name": "",
          "type": "uint256"
        }
      ],
      "stateMutability": "view",
      "type": "function"
    },
    {
      "inputs": [],
      "name": "MINT_PRICE",
      "outputs": [
        {
          "internalType": "uint256",
          "name": "",
          "type": "uint256"
        }
      ],
      "stateMutability": "view",
      "type": "function"
    },
    {
      "inputs": [
        {
          "internalType": "address",
          "name": "to",
          "type": "address"
        },
        {
          "internalType": "uint256",
          "name": "tokenId",
          "type": "uint256"
        }
      ],
      "name": "approve",
      "outputs": [],
      "stateMutability": "nonpayable",
      "type": "function"
    },
    {
      "inputs": [
        {
          "internalType": "address",
          "name": "owner",
          "type": "address"
        }
      ],
      "name": "balanceOf",
      "outputs": [
        {
          "internalType": "uint256",
          "name": "",
          "type": "uint256"
        }
      ],
      "stateMutability": "view",
      "type": "function"
    },
    {
      "inputs": [
        {
          "internalType": "uint256",
          "name": "tokenId",
          "type": "uint256"
        }
      ],
      "name": "getApproved",
      "outputs": [
        {
          "internalType": "address",
          "name": "",
          "type": "address"
        }
      ],
      "stateMutability": "view",
      "type": "function"
    },
    {
      "inputs": [
        {
          "internalType": "address",
          "name": "owner",
          "type": "address"
        },
        {
          "internalType": "address",
          "name": "operator",
          "type": "address"
        }
      ],
      "name": "isApprovedForAll",
      "outputs": [
        {
          "internalType": "bool",
          "name": "",
          "type": "bool"
        }
      ],
      "stateMutability": "view",
      "type": "function"
    },
    {
      "inputs": [],
      "name": "name",
      "outputs": [
        {
          "internalType": "string",
          "name": "",
          "type": "string"
        }
      ],
      "stateMutability": "view",
      "type": "function"
    },
    {
      "inputs": [],
      "name": "owner",
      "outputs": [
        {
          "internalType": "address",
          "name": "",
          "type": "address"
        }
      ],
      "stateMutability": "view",
      "type": "function"
    },
    {
      "inputs": [
        {
          "internalType": "uint256",
          "name": "tokenId",
          "type": "uint256"
        }
      ],
      "name": "ownerOf",
      "outputs": [
        {
          "internalType": "address",
          "name": "",
          "type": "address"
        }
      ],
      "stateMutability": "view",
      "type": "function"
    },
    {
      "inputs": [],
      "name": "renounceOwnership",
      "outputs": [],
      "stateMutability": "nonpayable",
      "type": "function"
    },
    {
      "inputs": [
        {
          "internalType": "address",
          "name": "to",
          "type": "address"
        },
        {
          "internalType": "string",
          "name": "uri",
          "type": "string"
        }
      ],
      "name": "safeMint",
      "outputs": [],
      "stateMutability": "payable",
      "type": "function"
    },
    {
      "inputs": [
        {
          "internalType": "address",
          "name": "from",
          "type": "address"
        },
        {
          "internalType": "address",
          "name": "to",
          "type": "address"
        },
        {
          "internalType": "uint256",
          "name": "tokenId",
          "type": "uint256"
        }
      ],
      "name": "safeTransferFrom",
      "outputs": [],
      "stateMutability": "nonpayable",
      "type": "function"
    },
    {
      "inputs": [
        {
          "internalType": "address",
          "name": "from",
          "type": "address"
        },
        {
          "internalType": "address",
          "name": "to",
          "type": "address"
        },
        {
          "internalType": "uint256",
          "name": "tokenId",
          "type": "uint256"
        },
        {
          "internalType": "bytes",
          "name": "data",
          "type": "bytes"
        }
      ],
      "name": "safeTransferFrom",
      "outputs": [],
      "stateMutability": "nonpayable",
      "type": "function"
    },
    {
      "inputs": [
        {
          "internalType": "address",
          "name": "operator",
          "type": "address"
        },
        {
          "internalType": "bool",
          "name": "approved",
          "type": "bool"
        }
      ],
      "name": "setApprovalForAll",
      "outputs": [],
      "stateMutability": "nonpayable",
      "type": "function"
    },
    {
      "inputs": [
        {
          "internalType": "bytes4",
          "name": "interfaceId",
          "type": "bytes4"
        }
      ],
      "name": "supportsInterface",
      "outputs": [
        {
          "internalType": "bool",
          "name": "",
          "type": "bool"
        }
      ],
      "stateMutability": "view",
      "type": "function"
    },
    {
      "inputs": [],
      "name": "symbol",
      "outputs": [
        {
          "internalType": "string",
          "name": "",
          "type": "string"
        }
      ],
      "stateMutability": "view",
      "type": "function"
    },
    {
      "inputs": [
        {
          "internalType": "uint256",
          "name": "index",
          "type": "uint256"
        }
      ],
      "name": "tokenByIndex",
      "outputs": [
        {
          "internalType": "uint256",
          "name": "",
          "type": "uint256"
        }
      ],
      "stateMutability": "view",
      "type": "function"
    },
    {
      "inputs": [
        {
          "internalType": "address",
          "name": "owner",
          "type": "address"
        },
        {
          "internalType": "uint256",
          "name": "index",
          "type": "uint256"
        }
      ],
      "name": "tokenOfOwnerByIndex",
      "outputs": [
        {
          "internalType": "uint256",
          "name": "",
          "type": "uint256"
        }
      ],
      "stateMutability": "view",
      "type": "function"
    },
    {
      "inputs": [
        {
          "internalType": "uint256",
          "name": "tokenId",
          "type": "uint256"
        }
      ],
      "name": "tokenURI",
      "outputs": [
        {
          "internalType": "string",
          "name": "",
          "type": "string"
        }
      ],
      "stateMutability": "view",
      "type": "function"
    },
    {
      "inputs": [],
      "name": "totalSupply",
      "outputs": [
        {
          "internalType": "uint256",
          "name": "",
          "type": "uint256"
        }
      ],
      "stateMutability": "view",
      "type": "function"
    },
    {
      "inputs": [
        {
          "internalType": "address",
          "name": "from",
          "type": "address"
        },
        {
          "internalType": "address",
          "name": "to",
          "type": "address"
        },
        {
          "internalType": "uint256",
          "name": "tokenId",
          "type": "uint256"
        }
      ],
      "name": "transferFrom",
      "outputs": [],
      "stateMutability": "nonpayable",
      "type": "function"
    },
    {
      "inputs": [
        {
          "internalType": "address",
          "name": "newOwner",
          "type": "address"
        }
      ],
      "name": "transferOwnership",
      "outputs": [],
      "stateMutability": "nonpayable",
      "type": "function"
    },
    {
      "inputs": [],
      "name": "withdrawPayments",
      "outputs": [],
      "stateMutability": "nonpayable",
      "type": "function"
    }
  ],
  "bytecode": "0x60806040523480156200001157600080fd5b506040518060400160405280600a81526020017f4465616647616c617879000000000000000000000000000000000000000000008152506040518060400160405280600381526020017f444758000000000000000000000000000000000000000000000000000000000081525081600090816200008f919062000412565b508060019081620000a1919062000412565b505050620000c4620000b8620000ca60201b60201c565b620000d260201b60201c565b620004f9565b600033905090565b6000600b60009054906101000a900473ffffffffffffffffffffffffffffffffffffffff16905081600b60006101000a81548173ffffffffffffffffffffffffffffffffffffffff021916908373ffffffffffffffffffffffffffffffffffffffff1602179055508173ffffffffffffffffffffffffffffffffffffffff168173ffffffffffffffffffffffffffffffffffffffff167f8be0079c531659141344cd1fd0a4f28419497f9722a3daafe3b4186f6b6457e060405160405180910390a35050565b600081519050919050565b7f4e487b7100000000000000000000000000000000000000000000000000000000600052604160045260246000fd5b7f4e487b7100000000000000000000000000000000000000000000000000000000600052602260045260246000fd5b600060028204905060018216806200021a57607f821691505b60208210810362000230576200022f620001d2565b5b50919050565b60008190508160005260206000209050919050565b60006020601f8301049050919050565b600082821b905092915050565b6000600883026200029a7fffffffffffffffffffffffffffffffffffffffffffffffffffffffffffffffff826200025b565b620002a686836200025b565b95508019841693508086168417925050509392505050565b6000819050919050565b6000819050919050565b6000620002f3620002ed620002e784620002be565b620002c8565b620002be565b9050919050565b6000819050919050565b6200030f83620002d2565b620003276200031e82620002fa565b84845462000268565b825550505050565b600090565b6200033e6200032f565b6200034b81848462000304565b505050565b5b8181101562000373576200036760008262000334565b60018101905062000351565b5050565b601f821115620003c2576200038c8162000236565b62000397846200024b565b81016020851015620003a7578190505b620003bf620003b6856200024b565b83018262000350565b50505b505050565b600082821c905092915050565b6000620003e760001984600802620003c7565b1980831691505092915050565b6000620004028383620003d4565b9150826002028217905092915050565b6200041d8262000198565b67ffffffffffffffff811115620004395762000438620001a3565b5b62000445825462000201565b6200045282828562000377565b600060209050601f8311600181146200048a576000841562000475578287015190505b620004818582620003f4565b865550620004f1565b601f1984166200049a8662000236565b60005b82811015620004c4578489015182556001820191506020850194506020810190506200049d565b86831015620004e45784890151620004e0601f891682620003d4565b8355505b6001600288020188555050505b505050505050565b61395480620005096000396000f3fe6080604052600436106101405760003560e01c80636352211e116100b6578063b88d4fde1161006f578063b88d4fde1461045c578063c002d23d14610485578063c87b56dd146104b0578063d204c45e146104ed578063e985e9c514610509578063f2fde38b1461054657610140565b80636352211e1461034c57806370a0823114610389578063715018a6146103c65780638da5cb5b146103dd57806395d89b4114610408578063a22cb4651461043357610140565b806323b872dd1161010857806323b872dd1461023e5780632f745c591461026757806332cb6b0c146102a457806342842e0e146102cf5780634f6ccce7146102f85780636103d70b1461033557610140565b806301ffc9a71461014557806306fdde0314610182578063081812fc146101ad578063095ea7b3146101ea57806318160ddd14610213575b600080fd5b34801561015157600080fd5b5061016c60048036038101906101679190612384565b61056f565b60405161017991906123cc565b60405180910390f35b34801561018e57600080fd5b50610197610581565b6040516101a49190612477565b60405180910390f35b3480156101b957600080fd5b506101d460048036038101906101cf91906124cf565b610613565b6040516101e1919061253d565b60405180910390f35b3480156101f657600080fd5b50610211600480360381019061020c9190612584565b610659565b005b34801561021f57600080fd5b50610228610770565b60405161023591906125d3565b60405180910390f35b34801561024a57600080fd5b50610265600480360381019061026091906125ee565b61077d565b005b34801561027357600080fd5b5061028e60048036038101906102899190612584565b6107dd565b60405161029b91906125d3565b60405180910390f35b3480156102b057600080fd5b506102b9610882565b6040516102c691906125d3565b60405180910390f35b3480156102db57600080fd5b506102f660048036038101906102f191906125ee565b610888565b005b34801561030457600080fd5b5061031f600480360381019061031a91906124cf565b6108a8565b60405161032c91906125d3565b60405180910390f35b34801561034157600080fd5b5061034a610919565b005b34801561035857600080fd5b50610373600480360381019061036e91906124cf565b610971565b604051610380919061253d565b60405180910390f35b34801561039557600080fd5b506103b060048036038101906103ab9190612641565b610a22565b6040516103bd91906125d3565b60405180910390f35b3480156103d257600080fd5b506103db610ad9565b005b3480156103e957600080fd5b506103f2610aed565b6040516103ff919061253d565b60405180910390f35b34801561041457600080fd5b5061041d610b17565b60405161042a9190612477565b60405180910390f35b34801561043f57600080fd5b5061045a6004803603810190610455919061269a565b610ba9565b005b34801561046857600080fd5b50610483600480360381019061047e919061280f565b610bbf565b005b34801561049157600080fd5b5061049a610c21565b6040516104a791906125d3565b60405180910390f35b3480156104bc57600080fd5b506104d760048036038101906104d291906124cf565b610c2c565b6040516104e49190612477565b60405180910390f35b61050760048036038101906105029190612933565b610c3e565b005b34801561051557600080fd5b50610530600480360381019061052b919061298f565b610d0c565b60405161053d91906123cc565b60405180910390f35b34801561055257600080fd5b5061056d60048036038101906105689190612641565b610da0565b005b600061057a82610e23565b9050919050565b606060008054610590906129fe565b80601f01602080910402602001604051908101604052809291908181526020018280546105bc906129fe565b80156106095780601f106105de57610100808354040283529160200191610609565b820191906000526020600020905b8154815290600101906020018083116105ec57829003601f168201915b5050505050905090565b600061061e82610e9d565b6004600083815260200190815260200160002060009054906101000a900473ffffffffffffffffffffffffffffffffffffffff169050919050565b600061066482610971565b90508073ffffffffffffffffffffffffffffffffffffffff168373ffffffffffffffffffffffffffffffffffffffff16036106d4576040517f08c379a00000000000000000000000000000000000000000000000000000000081526004016106cb90612aa1565b60405180910390fd5b8073ffffffffffffffffffffffffffffffffffffffff166106f3610ee8565b73ffffffffffffffffffffffffffffffffffffffff16148061072257506107218161071c610ee8565b610d0c565b5b610761576040517f08c379a000000000000000000000000000000000000000000000000000000000815260040161075890612b33565b60405180910390fd5b61076b8383610ef0565b505050565b6000600880549050905090565b61078e610788610ee8565b82610fa9565b6107cd576040517f08c379a00000000000000000000000000000000000000000000000000000000081526004016107c490612bc5565b60405180910390fd5b6107d883838361103e565b505050565b60006107e883610a22565b8210610829576040517f08c379a000000000000000000000000000000000000000000000000000000000815260040161082090612c57565b60405180910390fd5b600660008473ffffffffffffffffffffffffffffffffffffffff1673ffffffffffffffffffffffffffffffffffffffff168152602001908152602001600020600083815260200190815260200160002054905092915050565b6103e881565b6108a383838360405180602001604052806000815250610bbf565b505050565b60006108b2610770565b82106108f3576040517f08c379a00000000000000000000000000000000000000000000000000000000081526004016108ea90612ce9565b60405180910390fd5b6008828154811061090757610906612d09565b5b90600052602060002001549050919050565b6109216112a4565b610929610aed565b73ffffffffffffffffffffffffffffffffffffffff166108fc479081150290604051600060405180830381858888f1935050505015801561096e573d6000803e3d6000fd5b50565b6000806002600084815260200190815260200160002060009054906101000a900473ffffffffffffffffffffffffffffffffffffffff169050600073ffffffffffffffffffffffffffffffffffffffff168173ffffffffffffffffffffffffffffffffffffffff1603610a19576040517f08c379a0000000000000000000000000000000000000000000000000000000008152600401610a1090612d84565b60405180910390fd5b80915050919050565b60008073ffffffffffffffffffffffffffffffffffffffff168273ffffffffffffffffffffffffffffffffffffffff1603610a92576040517f08c379a0000000000000000000000000000000000000000000000000000000008152600401610a8990612e16565b60405180910390fd5b600360008373ffffffffffffffffffffffffffffffffffffffff1673ffffffffffffffffffffffffffffffffffffffff168152602001908152602001600020549050919050565b610ae16112a4565b610aeb6000611322565b565b6000600b60009054906101000a900473ffffffffffffffffffffffffffffffffffffffff16905090565b606060018054610b26906129fe565b80601f0160208091040260200160405190810160405280929190818152602001828054610b52906129fe565b8015610b9f5780601f10610b7457610100808354040283529160200191610b9f565b820191906000526020600020905b815481529060010190602001808311610b8257829003601f168201915b5050505050905090565b610bbb610bb4610ee8565b83836113e8565b5050565b610bd0610bca610ee8565b83610fa9565b610c0f576040517f08c379a0000000000000000000000000000000000000000000000000000000008152600401610c0690612bc5565b60405180910390fd5b610c1b84848484611554565b50505050565b66038d7ea4c6800081565b6060610c37826115b0565b9050919050565b610c466112a4565b66038d7ea4c68000341015610c90576040517f08c379a0000000000000000000000000000000000000000000000000000000008152600401610c8790612ea8565b60405180910390fd5b6103e8610c9b610770565b10610cdb576040517f08c379a0000000000000000000000000000000000000000000000000000000008152600401610cd290612f14565b60405180910390fd5b6000610ce7600c6116c2565b9050610cf3600c6116d0565b610cfd83826116e6565b610d078183611704565b505050565b6000600560008473ffffffffffffffffffffffffffffffffffffffff1673ffffffffffffffffffffffffffffffffffffffff16815260200190815260200160002060008373ffffffffffffffffffffffffffffffffffffffff1673ffffffffffffffffffffffffffffffffffffffff16815260200190815260200160002060009054906101000a900460ff16905092915050565b610da86112a4565b600073ffffffffffffffffffffffffffffffffffffffff168173ffffffffffffffffffffffffffffffffffffffff1603610e17576040517f08c379a0000000000000000000000000000000000000000000000000000000008152600401610e0e90612fa6565b60405180910390fd5b610e2081611322565b50565b60007f780e9d63000000000000000000000000000000000000000000000000000000007bffffffffffffffffffffffffffffffffffffffffffffffffffffffff1916827bffffffffffffffffffffffffffffffffffffffffffffffffffffffff19161480610e965750610e9582611771565b5b9050919050565b610ea681611853565b610ee5576040517f08c379a0000000000000000000000000000000000000000000000000000000008152600401610edc90612d84565b60405180910390fd5b50565b600033905090565b816004600083815260200190815260200160002060006101000a81548173ffffffffffffffffffffffffffffffffffffffff021916908373ffffffffffffffffffffffffffffffffffffffff160217905550808273ffffffffffffffffffffffffffffffffffffffff16610f6383610971565b73ffffffffffffffffffffffffffffffffffffffff167f8c5be1e5ebec7d5bd14f71427d1e84f3dd0314c0f7b2291e5b200ac8c7c3b92560405160405180910390a45050565b600080610fb583610971565b90508073ffffffffffffffffffffffffffffffffffffffff168473ffffffffffffffffffffffffffffffffffffffff161480610ff75750610ff68185610d0c565b5b8061103557508373ffffffffffffffffffffffffffffffffffffffff1661101d84610613565b73ffffffffffffffffffffffffffffffffffffffff16145b91505092915050565b8273ffffffffffffffffffffffffffffffffffffffff1661105e82610971565b73ffffffffffffffffffffffffffffffffffffffff16146110b4576040517f08c379a00000000000000000000000000000000000000000000000000000000081526004016110ab90613038565b60405180910390fd5b600073ffffffffffffffffffffffffffffffffffffffff168273ffffffffffffffffffffffffffffffffffffffff1603611123576040517f08c379a000000000000000000000000000000000000000000000000000000000815260040161111a906130ca565b60405180910390fd5b61112e8383836118bf565b611139600082610ef0565b6001600360008573ffffffffffffffffffffffffffffffffffffffff1673ffffffffffffffffffffffffffffffffffffffff16815260200190815260200160002060008282546111899190613119565b925050819055506001600360008473ffffffffffffffffffffffffffffffffffffffff1673ffffffffffffffffffffffffffffffffffffffff16815260200190815260200160002060008282546111e0919061314d565b92505081905550816002600083815260200190815260200160002060006101000a81548173ffffffffffffffffffffffffffffffffffffffff021916908373ffffffffffffffffffffffffffffffffffffffff160217905550808273ffffffffffffffffffffffffffffffffffffffff168473ffffffffffffffffffffffffffffffffffffffff167fddf252ad1be2c89b69c2b068fc378daa952ba7f163c4a11628f55a4df523b3ef60405160405180910390a461129f8383836118cf565b505050565b6112ac610ee8565b73ffffffffffffffffffffffffffffffffffffffff166112ca610aed565b73ffffffffffffffffffffffffffffffffffffffff1614611320576040517f08c379a0000000000000000000000000000000000000000000000000000000008152600401611317906131cd565b60405180910390fd5b565b6000600b60009054906101000a900473ffffffffffffffffffffffffffffffffffffffff16905081600b60006101000a81548173ffffffffffffffffffffffffffffffffffffffff021916908373ffffffffffffffffffffffffffffffffffffffff1602179055508173ffffffffffffffffffffffffffffffffffffffff168173ffffffffffffffffffffffffffffffffffffffff167f8be0079c531659141344cd1fd0a4f28419497f9722a3daafe3b4186f6b6457e060405160405180910390a35050565b8173ffffffffffffffffffffffffffffffffffffffff168373ffffffffffffffffffffffffffffffffffffffff1603611456576040517f08c379a000000000000000000000000000000000000000000000000000000000815260040161144d90613239565b60405180910390fd5b80600560008573ffffffffffffffffffffffffffffffffffffffff1673ffffffffffffffffffffffffffffffffffffffff16815260200190815260200160002060008473ffffffffffffffffffffffffffffffffffffffff1673ffffffffffffffffffffffffffffffffffffffff16815260200190815260200160002060006101000a81548160ff0219169083151502179055508173ffffffffffffffffffffffffffffffffffffffff168373ffffffffffffffffffffffffffffffffffffffff167f17307eab39ab6107e8899845ad3d59bd9653f200f220920489ca2b5937696c318360405161154791906123cc565b60405180910390a3505050565b61155f84848461103e565b61156b848484846118d4565b6115aa576040517f08c379a00000000000000000000000000000000000000000000000000000000081526004016115a1906132cb565b60405180910390fd5b50505050565b60606115bb82610e9d565b6000600a600084815260200190815260200160002080546115db906129fe565b80601f0160208091040260200160405190810160405280929190818152602001828054611607906129fe565b80156116545780601f1061162957610100808354040283529160200191611654565b820191906000526020600020905b81548152906001019060200180831161163757829003601f168201915b505050505090506000611665611a5b565b9050600081510361167a5781925050506116bd565b6000825111156116af578082604051602001611697929190613327565b604051602081830303815290604052925050506116bd565b6116b884611a72565b925050505b919050565b600081600001549050919050565b6001816000016000828254019250508190555050565b611700828260405180602001604052806000815250611ada565b5050565b61170d82611853565b61174c576040517f08c379a0000000000000000000000000000000000000000000000000000000008152600401611743906133bd565b60405180910390fd5b80600a6000848152602001908152602001600020908161176c9190613589565b505050565b60007f80ac58cd000000000000000000000000000000000000000000000000000000007bffffffffffffffffffffffffffffffffffffffffffffffffffffffff1916827bffffffffffffffffffffffffffffffffffffffffffffffffffffffff1916148061183c57507f5b5e139f000000000000000000000000000000000000000000000000000000007bffffffffffffffffffffffffffffffffffffffffffffffffffffffff1916827bffffffffffffffffffffffffffffffffffffffffffffffffffffffff1916145b8061184c575061184b82611b35565b5b9050919050565b60008073ffffffffffffffffffffffffffffffffffffffff166002600084815260200190815260200160002060009054906101000a900473ffffffffffffffffffffffffffffffffffffffff1673ffffffffffffffffffffffffffffffffffffffff1614159050919050565b6118ca838383611b9f565b505050565b505050565b60006118f58473ffffffffffffffffffffffffffffffffffffffff16611cb1565b15611a4e578373ffffffffffffffffffffffffffffffffffffffff1663150b7a0261191e610ee8565b8786866040518563ffffffff1660e01b815260040161194094939291906136b0565b6020604051808303816000875af192505050801561197c57506040513d601f19601f820116820180604052508101906119799190613711565b60015b6119fe573d80600081146119ac576040519150601f19603f3d011682016040523d82523d6000602084013e6119b1565b606091505b5060008151036119f6576040517f08c379a00000000000000000000000000000000000000000000000000000000081526004016119ed906132cb565b60405180910390fd5b805181602001fd5b63150b7a0260e01b7bffffffffffffffffffffffffffffffffffffffffffffffffffffffff1916817bffffffffffffffffffffffffffffffffffffffffffffffffffffffff191614915050611a53565b600190505b949350505050565b606060405180602001604052806000815250905090565b6060611a7d82610e9d565b6000611a87611a5b565b90506000815111611aa75760405180602001604052806000815250611ad2565b80611ab184611cd4565b604051602001611ac2929190613327565b6040516020818303038152906040525b915050919050565b611ae48383611e34565b611af160008484846118d4565b611b30576040517f08c379a0000000000000000000000000000000000000000000000000000000008152600401611b27906132cb565b60405180910390fd5b505050565b60007f01ffc9a7000000000000000000000000000000000000000000000000000000007bffffffffffffffffffffffffffffffffffffffffffffffffffffffff1916827bffffffffffffffffffffffffffffffffffffffffffffffffffffffff1916149050919050565b611baa83838361200d565b600073ffffffffffffffffffffffffffffffffffffffff168373ffffffffffffffffffffffffffffffffffffffff1603611bec57611be781612012565b611c2b565b8173ffffffffffffffffffffffffffffffffffffffff168373ffffffffffffffffffffffffffffffffffffffff1614611c2a57611c29838261205b565b5b5b600073ffffffffffffffffffffffffffffffffffffffff168273ffffffffffffffffffffffffffffffffffffffff1603611c6d57611c68816121c8565b611cac565b8273ffffffffffffffffffffffffffffffffffffffff168273ffffffffffffffffffffffffffffffffffffffff1614611cab57611caa8282612299565b5b5b505050565b6000808273ffffffffffffffffffffffffffffffffffffffff163b119050919050565b606060008203611d1b576040518060400160405280600181526020017f30000000000000000000000000000000000000000000000000000000000000008152509050611e2f565b600082905060005b60008214611d4d578080611d369061373e565b915050600a82611d4691906137b5565b9150611d23565b60008167ffffffffffffffff811115611d6957611d686126e4565b5b6040519080825280601f01601f191660200182016040528015611d9b5781602001600182028036833780820191505090505b5090505b60008514611e2857600182611db49190613119565b9150600a85611dc391906137e6565b6030611dcf919061314d565b60f81b818381518110611de557611de4612d09565b5b60200101907effffffffffffffffffffffffffffffffffffffffffffffffffffffffffffff1916908160001a905350600a85611e2191906137b5565b9450611d9f565b8093505050505b919050565b600073ffffffffffffffffffffffffffffffffffffffff168273ffffffffffffffffffffffffffffffffffffffff1603611ea3576040517f08c379a0000000000000000000000000000000000000000000000000000000008152600401611e9a90613863565b60405180910390fd5b611eac81611853565b15611eec576040517f08c379a0000000000000000000000000000000000000000000000000000000008152600401611ee3906138cf565b60405180910390fd5b611ef8600083836118bf565b6001600360008473ffffffffffffffffffffffffffffffffffffffff1673ffffffffffffffffffffffffffffffffffffffff1681526020019081526020016000206000828254611f48919061314d565b92505081905550816002600083815260200190815260200160002060006101000a81548173ffffffffffffffffffffffffffffffffffffffff021916908373ffffffffffffffffffffffffffffffffffffffff160217905550808273ffffffffffffffffffffffffffffffffffffffff16600073ffffffffffffffffffffffffffffffffffffffff167fddf252ad1be2c89b69c2b068fc378daa952ba7f163c4a11628f55a4df523b3ef60405160405180910390a4612009600083836118cf565b5050565b505050565b6008805490506009600083815260200190815260200160002081905550600881908060018154018082558091505060019003906000526020600020016000909190919091505550565b6000600161206884610a22565b6120729190613119565b9050600060076000848152602001908152602001600020549050818114612157576000600660008673ffffffffffffffffffffffffffffffffffffffff1673ffffffffffffffffffffffffffffffffffffffff168152602001908152602001600020600084815260200190815260200160002054905080600660008773ffffffffffffffffffffffffffffffffffffffff1673ffffffffffffffffffffffffffffffffffffffff168152602001908152602001600020600084815260200190815260200160002081905550816007600083815260200190815260200160002081905550505b6007600084815260200190815260200160002060009055600660008573ffffffffffffffffffffffffffffffffffffffff1673ffffffffffffffffffffffffffffffffffffffff16815260200190815260200160002060008381526020019081526020016000206000905550505050565b600060016008805490506121dc9190613119565b905060006009600084815260200190815260200160002054905060006008838154811061220c5761220b612d09565b5b90600052602060002001549050806008838154811061222e5761222d612d09565b5b90600052602060002001819055508160096000838152602001908152602001600020819055506009600085815260200190815260200160002060009055600880548061227d5761227c6138ef565b5b6001900381819060005260206000200160009055905550505050565b60006122a483610a22565b905081600660008573ffffffffffffffffffffffffffffffffffffffff1673ffffffffffffffffffffffffffffffffffffffff168152602001908152602001600020600083815260200190815260200160002081905550806007600084815260200190815260200160002081905550505050565b6000604051905090565b600080fd5b600080fd5b60007fffffffff0000000000000000000000000000000000000000000000000000000082169050919050565b6123618161232c565b811461236c57600080fd5b50565b60008135905061237e81612358565b92915050565b60006020828403121561239a57612399612322565b5b60006123a88482850161236f565b91505092915050565b60008115159050919050565b6123c6816123b1565b82525050565b60006020820190506123e160008301846123bd565b92915050565b600081519050919050565b600082825260208201905092915050565b60005b83811015612421578082015181840152602081019050612406565b60008484015250505050565b6000601f19601f8301169050919050565b6000612449826123e7565b61245381856123f2565b9350612463818560208601612403565b61246c8161242d565b840191505092915050565b60006020820190508181036000830152612491818461243e565b905092915050565b6000819050919050565b6124ac81612499565b81146124b757600080fd5b50565b6000813590506124c9816124a3565b92915050565b6000602082840312156124e5576124e4612322565b5b60006124f3848285016124ba565b91505092915050565b600073ffffffffffffffffffffffffffffffffffffffff82169050919050565b6000612527826124fc565b9050919050565b6125378161251c565b82525050565b6000602082019050612552600083018461252e565b92915050565b6125618161251c565b811461256c57600080fd5b50565b60008135905061257e81612558565b92915050565b6000806040838503121561259b5761259a612322565b5b60006125a98582860161256f565b92505060206125ba858286016124ba565b9150509250929050565b6125cd81612499565b82525050565b60006020820190506125e860008301846125c4565b92915050565b60008060006060848603121561260757612606612322565b5b60006126158682870161256f565b93505060206126268682870161256f565b9250506040612637868287016124ba565b9150509250925092565b60006020828403121561265757612656612322565b5b60006126658482850161256f565b91505092915050565b612677816123b1565b811461268257600080fd5b50565b6000813590506126948161266e565b92915050565b600080604083850312156126b1576126b0612322565b5b60006126bf8582860161256f565b92505060206126d085828601612685565b9150509250929050565b600080fd5b600080fd5b7f4e487b7100000000000000000000000000000000000000000000000000000000600052604160045260246000fd5b61271c8261242d565b810181811067ffffffffffffffff8211171561273b5761273a6126e4565b5b80604052505050565b600061274e612318565b905061275a8282612713565b919050565b600067ffffffffffffffff82111561277a576127796126e4565b5b6127838261242d565b9050602081019050919050565b82818337600083830152505050565b60006127b26127ad8461275f565b612744565b9050828152602081018484840111156127ce576127cd6126df565b5b6127d9848285612790565b509392505050565b600082601f8301126127f6576127f56126da565b5b813561280684826020860161279f565b91505092915050565b6000806000806080858703121561282957612828612322565b5b60006128378782880161256f565b94505060206128488782880161256f565b9350506040612859878288016124ba565b925050606085013567ffffffffffffffff81111561287a57612879612327565b5b612886878288016127e1565b91505092959194509250565b600067ffffffffffffffff8211156128ad576128ac6126e4565b5b6128b68261242d565b9050602081019050919050565b60006128d66128d184612892565b612744565b9050828152602081018484840111156128f2576128f16126df565b5b6128fd848285612790565b509392505050565b600082601f83011261291a576129196126da565b5b813561292a8482602086016128c3565b91505092915050565b6000806040838503121561294a57612949612322565b5b60006129588582860161256f565b925050602083013567ffffffffffffffff81111561297957612978612327565b5b61298585828601612905565b9150509250929050565b600080604083850312156129a6576129a5612322565b5b60006129b48582860161256f565b92505060206129c58582860161256f565b9150509250929050565b7f4e487b7100000000000000000000000000000000000000000000000000000000600052602260045260246000fd5b60006002820490506001821680612a1657607f821691505b602082108103612a2957612a286129cf565b5b50919050565b7f4552433732313a20617070726f76616c20746f2063757272656e74206f776e6560008201527f7200000000000000000000000000000000000000000000000000000000000000602082015250565b6000612a8b6021836123f2565b9150612a9682612a2f565b604082019050919050565b60006020820190508181036000830152612aba81612a7e565b9050919050565b7f4552433732313a20617070726f76652063616c6c6572206973206e6f7420746f60008201527f6b656e206f776e6572206e6f7220617070726f76656420666f7220616c6c0000602082015250565b6000612b1d603e836123f2565b9150612b2882612ac1565b604082019050919050565b60006020820190508181036000830152612b4c81612b10565b9050919050565b7f4552433732313a2063616c6c6572206973206e6f7420746f6b656e206f776e6560008201527f72206e6f7220617070726f766564000000000000000000000000000000000000602082015250565b6000612baf602e836123f2565b9150612bba82612b53565b604082019050919050565b60006020820190508181036000830152612bde81612ba2565b9050919050565b7f455243373231456e756d657261626c653a206f776e657220696e646578206f7560008201527f74206f6620626f756e6473000000000000000000000000000000000000000000602082015250565b6000612c41602b836123f2565b9150612c4c82612be5565b604082019050919050565b60006020820190508181036000830152612c7081612c34565b9050919050565b7f455243373231456e756d657261626c653a20676c6f62616c20696e646578206f60008201527f7574206f6620626f756e64730000000000000000000000000000000000000000602082015250565b6000612cd3602c836123f2565b9150612cde82612c77565b604082019050919050565b60006020820190508181036000830152612d0281612cc6565b9050919050565b7f4e487b7100000000000000000000000000000000000000000000000000000000600052603260045260246000fd5b7f4552433732313a20696e76616c696420746f6b656e2049440000000000000000600082015250565b6000612d6e6018836123f2565b9150612d7982612d38565b602082019050919050565b60006020820190508181036000830152612d9d81612d61565b9050919050565b7f4552433732313a2061646472657373207a65726f206973206e6f74206120766160008201527f6c6964206f776e65720000000000000000000000000000000000000000000000602082015250565b6000612e006029836123f2565b9150612e0b82612da4565b604082019050919050565b60006020820190508181036000830152612e2f81612df3565b9050919050565b7f5472616e73616374696f6e2076616c756520646964206e6f7420657175616c2060008201527f746865206d696e74207072696365210000000000000000000000000000000000602082015250565b6000612e92602f836123f2565b9150612e9d82612e36565b604082019050919050565b60006020820190508181036000830152612ec181612e85565b9050919050565b7f4d617820737570706c7920726561636865640000000000000000000000000000600082015250565b6000612efe6012836123f2565b9150612f0982612ec8565b602082019050919050565b60006020820190508181036000830152612f2d81612ef1565b9050919050565b7f4f776e61626c653a206e6577206f776e657220697320746865207a65726f206160008201527f6464726573730000000000000000000000000000000000000000000000000000602082015250565b6000612f906026836123f2565b9150612f9b82612f34565b604082019050919050565b60006020820190508181036000830152612fbf81612f83565b9050919050565b7f4552433732313a207472616e736665722066726f6d20696e636f72726563742060008201527f6f776e6572000000000000000000000000000000000000000000000000000000602082015250565b60006130226025836123f2565b915061302d82612fc6565b604082019050919050565b6000602082019050818103600083015261305181613015565b9050919050565b7f4552433732313a207472616e7366657220746f20746865207a65726f2061646460008201527f7265737300000000000000000000000000000000000000000000000000000000602082015250565b60006130b46024836123f2565b91506130bf82613058565b604082019050919050565b600060208201905081810360008301526130e3816130a7565b9050919050565b7f4e487b7100000000000000000000000000000000000000000000000000000000600052601160045260246000fd5b600061312482612499565b915061312f83612499565b9250828203905081811115613147576131466130ea565b5b92915050565b600061315882612499565b915061316383612499565b925082820190508082111561317b5761317a6130ea565b5b92915050565b7f4f776e61626c653a2063616c6c6572206973206e6f7420746865206f776e6572600082015250565b60006131b76020836123f2565b91506131c282613181565b602082019050919050565b600060208201905081810360008301526131e6816131aa565b9050919050565b7f4552433732313a20617070726f766520746f2063616c6c657200000000000000600082015250565b60006132236019836123f2565b915061322e826131ed565b602082019050919050565b6000602082019050818103600083015261325281613216565b9050919050565b7f4552433732313a207472616e7366657220746f206e6f6e20455243373231526560008201527f63656976657220696d706c656d656e7465720000000000000000000000000000602082015250565b60006132b56032836123f2565b91506132c082613259565b604082019050919050565b600060208201905081810360008301526132e4816132a8565b9050919050565b600081905092915050565b6000613301826123e7565b61330b81856132eb565b935061331b818560208601612403565b80840191505092915050565b600061333382856132f6565b915061333f82846132f6565b91508190509392505050565b7f45524337323155524953746f726167653a2055524920736574206f66206e6f6e60008201527f6578697374656e7420746f6b656e000000000000000000000000000000000000602082015250565b60006133a7602e836123f2565b91506133b28261334b565b604082019050919050565b600060208201905081810360008301526133d68161339a565b9050919050565b60008190508160005260206000209050919050565b60006020601f8301049050919050565b600082821b905092915050565b60006008830261343f7fffffffffffffffffffffffffffffffffffffffffffffffffffffffffffffffff82613402565b6134498683613402565b95508019841693508086168417925050509392505050565b6000819050919050565b600061348661348161347c84612499565b613461565b612499565b9050919050565b6000819050919050565b6134a08361346b565b6134b46134ac8261348d565b84845461340f565b825550505050565b600090565b6134c96134bc565b6134d4818484613497565b505050565b5b818110156134f8576134ed6000826134c1565b6001810190506134da565b5050565b601f82111561353d5761350e816133dd565b613517846133f2565b81016020851015613526578190505b61353a613532856133f2565b8301826134d9565b50505b505050565b600082821c905092915050565b600061356060001984600802613542565b1980831691505092915050565b6000613579838361354f565b9150826002028217905092915050565b613592826123e7565b67ffffffffffffffff8111156135ab576135aa6126e4565b5b6135b582546129fe565b6135c08282856134fc565b600060209050601f8311600181146135f357600084156135e1578287015190505b6135eb858261356d565b865550613653565b601f198416613601866133dd565b60005b8281101561362957848901518255600182019150602085019450602081019050613604565b868310156136465784890151613642601f89168261354f565b8355505b6001600288020188555050505b505050505050565b600081519050919050565b600082825260208201905092915050565b60006136828261365b565b61368c8185613666565b935061369c818560208601612403565b6136a58161242d565b840191505092915050565b60006080820190506136c5600083018761252e565b6136d2602083018661252e565b6136df60408301856125c4565b81810360608301526136f18184613677565b905095945050505050565b60008151905061370b81612358565b92915050565b60006020828403121561372757613726612322565b5b6000613735848285016136fc565b91505092915050565b600061374982612499565b91507fffffffffffffffffffffffffffffffffffffffffffffffffffffffffffffffff820361377b5761377a6130ea565b5b600182019050919050565b7f4e487b7100000000000000000000000000000000000000000000000000000000600052601260045260246000fd5b60006137c082612499565b91506137cb83612499565b9250826137db576137da613786565b5b828204905092915050565b60006137f182612499565b91506137fc83612499565b92508261380c5761380b613786565b5b828206905092915050565b7f4552433732313a206d696e7420746f20746865207a65726f2061646472657373600082015250565b600061384d6020836123f2565b915061385882613817565b602082019050919050565b6000602082019050818103600083015261387c81613840565b9050919050565b7f4552433732313a20746f6b656e20616c7265616479206d696e74656400000000600082015250565b60006138b9601c836123f2565b91506138c482613883565b602082019050919050565b600060208201905081810360008301526138e8816138ac565b9050919050565b7f4e487b7100000000000000000000000000000000000000000000000000000000600052603160045260246000fdfea264697066735822122091302d80e9949e00eb312d1cea1d2623ad3190ac6bd00b2bf2876ee7026726c664736f6c63430008110033",
  "linkReferences": {},
  "deployedLinkReferences": {}
}